{
  "contractName": "ComposableToken",
  "abi": [
    {
      "inputs": [],
      "stateMutability": "nonpayable",
      "type": "constructor"
    },
    {
      "anonymous": false,
      "inputs": [
        {
          "indexed": true,
          "internalType": "address",
          "name": "owner",
          "type": "address"
        },
        {
          "indexed": true,
          "internalType": "uint256",
          "name": "amount",
          "type": "uint256"
        }
      ],
      "name": "TokenMinted",
      "type": "event"
    },
    {
      "inputs": [
        {
          "internalType": "address",
          "name": "",
          "type": "address"
        },
        {
          "internalType": "address",
          "name": "",
          "type": "address"
        }
      ],
      "name": "allowance",
      "outputs": [
        {
          "internalType": "uint256",
          "name": "",
          "type": "uint256"
        }
      ],
      "stateMutability": "view",
      "type": "function"
    },
    {
      "inputs": [
        {
          "internalType": "address",
          "name": "",
          "type": "address"
        }
      ],
      "name": "balanceOf",
      "outputs": [
        {
          "internalType": "uint256",
          "name": "",
          "type": "uint256"
        }
      ],
      "stateMutability": "view",
      "type": "function"
    },
    {
      "inputs": [],
      "name": "name",
      "outputs": [
        {
          "internalType": "string",
          "name": "",
          "type": "string"
        }
      ],
      "stateMutability": "view",
      "type": "function"
    },
    {
      "inputs": [],
      "name": "symbol",
      "outputs": [
        {
          "internalType": "string",
          "name": "",
          "type": "string"
        }
      ],
      "stateMutability": "view",
      "type": "function"
    },
    {
      "inputs": [],
      "name": "totalSupply",
      "outputs": [
        {
          "internalType": "uint256",
          "name": "",
          "type": "uint256"
        }
      ],
      "stateMutability": "view",
      "type": "function"
    },
    {
      "inputs": [
        {
          "internalType": "address",
          "name": "merkleAddress",
          "type": "address"
        }
      ],
      "name": "setMerkleDistributor",
      "outputs": [],
      "stateMutability": "nonpayable",
      "type": "function"
    },
    {
      "inputs": [
        {
          "internalType": "address",
          "name": "_to",
          "type": "address"
        },
        {
          "internalType": "uint256",
          "name": "_value",
          "type": "uint256"
        }
      ],
      "name": "transfer",
      "outputs": [
        {
          "internalType": "bool",
          "name": "success",
          "type": "bool"
        }
      ],
      "stateMutability": "nonpayable",
      "type": "function"
    },
    {
      "inputs": [
        {
          "internalType": "address",
          "name": "_spender",
          "type": "address"
        },
        {
          "internalType": "uint256",
          "name": "_value",
          "type": "uint256"
        }
      ],
      "name": "approve",
      "outputs": [
        {
          "internalType": "bool",
          "name": "success",
          "type": "bool"
        }
      ],
      "stateMutability": "nonpayable",
      "type": "function"
    },
    {
      "inputs": [
        {
          "internalType": "address",
          "name": "_from",
          "type": "address"
        },
        {
          "internalType": "address",
          "name": "_to",
          "type": "address"
        },
        {
          "internalType": "uint256",
          "name": "_value",
          "type": "uint256"
        }
      ],
      "name": "transferFrom",
      "outputs": [
        {
          "internalType": "bool",
          "name": "success",
          "type": "bool"
        }
      ],
      "stateMutability": "nonpayable",
      "type": "function"
    },
    {
      "inputs": [
        {
          "internalType": "uint256",
          "name": "amount",
          "type": "uint256"
        }
      ],
      "name": "mint",
      "outputs": [],
      "stateMutability": "nonpayable",
      "type": "function"
    }
  ],
  "bytecode": "0x60806040526040518060400160405280601081526020017f436f6d706f7361626c6520546f6b656e000000000000000000000000000000008152506002908051906020019062000051929190620000f4565b506040518060400160405280600381526020017f434d500000000000000000000000000000000000000000000000000000000000815250600390805190602001906200009f929190620000f4565b50348015620000ad57600080fd5b50336000806101000a81548173ffffffffffffffffffffffffffffffffffffffff021916908373ffffffffffffffffffffffffffffffffffffffff16021790555062000209565b8280546200010290620001a4565b90600052602060002090601f01602090048101928262000126576000855562000172565b82601f106200014157805160ff191683800117855562000172565b8280016001018555821562000172579182015b828111156200017157825182559160200191906001019062000154565b5b50905062000181919062000185565b5090565b5b80821115620001a057600081600090555060010162000186565b5090565b60006002820490506001821680620001bd57607f821691505b60208210811415620001d457620001d3620001da565b5b50919050565b7f4e487b7100000000000000000000000000000000000000000000000000000000600052602260045260246000fd5b610ea480620002196000396000f3fe608060405234801561001057600080fd5b506004361061009e5760003560e01c806395d89b411161006657806395d89b411461016f578063a0712d681461018d578063a601f747146101a9578063a9059cbb146101c5578063dd62ed3e146101f55761009e565b806306fdde03146100a3578063095ea7b3146100c157806318160ddd146100f157806323b872dd1461010f57806370a082311461013f575b600080fd5b6100ab610225565b6040516100b89190610c01565b60405180910390f35b6100db60048036038101906100d69190610aaa565b6102b3565b6040516100e89190610be6565b60405180910390f35b6100f9610340565b6040516101069190610c63565b60405180910390f35b61012960048036038101906101249190610a5b565b610346565b6040516101369190610be6565b60405180910390f35b610159600480360381019061015491906109f6565b610567565b6040516101669190610c63565b60405180910390f35b61017761057f565b6040516101849190610c01565b60405180910390f35b6101a760048036038101906101a29190610ae6565b61060d565b005b6101c360048036038101906101be91906109f6565b610761565b005b6101df60048036038101906101da9190610aaa565b6108a3565b6040516101ec9190610be6565b60405180910390f35b61020f600480360381019061020a9190610a1f565b6109a7565b60405161021c9190610c63565b60405180910390f35b6002805461023290610d9f565b80601f016020809104026020016040519081016040528092919081815260200182805461025e90610d9f565b80156102ab5780601f10610280576101008083540402835291602001916102ab565b820191906000526020600020905b81548152906001019060200180831161028e57829003601f168201915b505050505081565b600081600660003373ffffffffffffffffffffffffffffffffffffffff1673ffffffffffffffffffffffffffffffffffffffff16815260200190815260200160002060008573ffffffffffffffffffffffffffffffffffffffff1673ffffffffffffffffffffffffffffffffffffffff168152602001908152602001600020819055506001905092915050565b60045481565b6000600560008573ffffffffffffffffffffffffffffffffffffffff1673ffffffffffffffffffffffffffffffffffffffff1681526020019081526020016000205482111561039457600080fd5b600660008573ffffffffffffffffffffffffffffffffffffffff1673ffffffffffffffffffffffffffffffffffffffff16815260200190815260200160002060003373ffffffffffffffffffffffffffffffffffffffff1673ffffffffffffffffffffffffffffffffffffffff1681526020019081526020016000205482111561041d57600080fd5b81600560008673ffffffffffffffffffffffffffffffffffffffff1673ffffffffffffffffffffffffffffffffffffffff168152602001908152602001600020600082825461046c9190610cf0565b9250508190555081600560008573ffffffffffffffffffffffffffffffffffffffff1673ffffffffffffffffffffffffffffffffffffffff16815260200190815260200160002060008282546104c29190610c9a565b9250508190555081600660008673ffffffffffffffffffffffffffffffffffffffff1673ffffffffffffffffffffffffffffffffffffffff16815260200190815260200160002060003373ffffffffffffffffffffffffffffffffffffffff1673ffffffffffffffffffffffffffffffffffffffff16815260200190815260200160002060008282546105559190610cf0565b92505081905550600190509392505050565b60056020528060005260406000206000915090505481565b6003805461058c90610d9f565b80601f01602080910402602001604051908101604052809291908181526020018280546105b890610d9f565b80156106055780601f106105da57610100808354040283529160200191610605565b820191906000526020600020905b8154815290600101906020018083116105e857829003601f168201915b505050505081565b60008054906101000a900473ffffffffffffffffffffffffffffffffffffffff1673ffffffffffffffffffffffffffffffffffffffff163373ffffffffffffffffffffffffffffffffffffffff161461069b576040517f08c379a000000000000000000000000000000000000000000000000000000000815260040161069290610c43565b60405180910390fd5b8060056000600160009054906101000a900473ffffffffffffffffffffffffffffffffffffffff1673ffffffffffffffffffffffffffffffffffffffff1673ffffffffffffffffffffffffffffffffffffffff1681526020019081526020016000208190555080600460008282546107139190610c9a565b92505081905550803373ffffffffffffffffffffffffffffffffffffffff167fb9144c96c86541f6fa89c9f2f02495cccf4b08cd6643e26d34ee00aa586558a860405160405180910390a350565b60008054906101000a900473ffffffffffffffffffffffffffffffffffffffff1673ffffffffffffffffffffffffffffffffffffffff163373ffffffffffffffffffffffffffffffffffffffff16146107ef576040517f08c379a00000000000000000000000000000000000000000000000000000000081526004016107e690610c43565b60405180910390fd5b600073ffffffffffffffffffffffffffffffffffffffff168173ffffffffffffffffffffffffffffffffffffffff16141561085f576040517f08c379a000000000000000000000000000000000000000000000000000000000815260040161085690610c23565b60405180910390fd5b80600160006101000a81548173ffffffffffffffffffffffffffffffffffffffff021916908373ffffffffffffffffffffffffffffffffffffffff16021790555050565b600081600560003373ffffffffffffffffffffffffffffffffffffffff1673ffffffffffffffffffffffffffffffffffffffff1681526020019081526020016000205410156108f157600080fd5b81600560003373ffffffffffffffffffffffffffffffffffffffff1673ffffffffffffffffffffffffffffffffffffffff16815260200190815260200160002060008282546109409190610cf0565b9250508190555081600560008573ffffffffffffffffffffffffffffffffffffffff1673ffffffffffffffffffffffffffffffffffffffff16815260200190815260200160002060008282546109969190610c9a565b925050819055506001905092915050565b6006602052816000526040600020602052806000526040600020600091509150505481565b6000813590506109db81610e40565b92915050565b6000813590506109f081610e57565b92915050565b600060208284031215610a0857600080fd5b6000610a16848285016109cc565b91505092915050565b60008060408385031215610a3257600080fd5b6000610a40858286016109cc565b9250506020610a51858286016109cc565b9150509250929050565b600080600060608486031215610a7057600080fd5b6000610a7e868287016109cc565b9350506020610a8f868287016109cc565b9250506040610aa0868287016109e1565b9150509250925092565b60008060408385031215610abd57600080fd5b6000610acb858286016109cc565b9250506020610adc858286016109e1565b9150509250929050565b600060208284031215610af857600080fd5b6000610b06848285016109e1565b91505092915050565b610b1881610d36565b82525050565b6000610b2982610c7e565b610b338185610c89565b9350610b43818560208601610d6c565b610b4c81610e2f565b840191505092915050565b6000610b64600f83610c89565b91507f496e76616c6964206164647265737300000000000000000000000000000000006000830152602082019050919050565b6000610ba4600a83610c89565b91507f4f6e6c79206f776e6572000000000000000000000000000000000000000000006000830152602082019050919050565b610be081610d62565b82525050565b6000602082019050610bfb6000830184610b0f565b92915050565b60006020820190508181036000830152610c1b8184610b1e565b905092915050565b60006020820190508181036000830152610c3c81610b57565b9050919050565b60006020820190508181036000830152610c5c81610b97565b9050919050565b6000602082019050610c786000830184610bd7565b92915050565b600081519050919050565b600082825260208201905092915050565b6000610ca582610d62565b9150610cb083610d62565b9250827fffffffffffffffffffffffffffffffffffffffffffffffffffffffffffffffff03821115610ce557610ce4610dd1565b5b828201905092915050565b6000610cfb82610d62565b9150610d0683610d62565b925082821015610d1957610d18610dd1565b5b828203905092915050565b6000610d2f82610d42565b9050919050565b60008115159050919050565b600073ffffffffffffffffffffffffffffffffffffffff82169050919050565b6000819050919050565b60005b83811015610d8a578082015181840152602081019050610d6f565b83811115610d99576000848401525b50505050565b60006002820490506001821680610db757607f821691505b60208210811415610dcb57610dca610e00565b5b50919050565b7f4e487b7100000000000000000000000000000000000000000000000000000000600052601160045260246000fd5b7f4e487b7100000000000000000000000000000000000000000000000000000000600052602260045260246000fd5b6000601f19601f8301169050919050565b610e4981610d24565b8114610e5457600080fd5b50565b610e6081610d62565b8114610e6b57600080fd5b5056fea2646970667358221220b7911733fe6c899345675187e5ad2add4d1ce02dab88538535b4f2494e59320164736f6c63430008000033",
  "immutableReferences": {},
  "source": "//SPDX-License-Identifier: MIT\npragma solidity >=0.4.22 <0.9.0;\n\n// import \"@openzeppelin/contracts/token/ERC20/IERC20.sol\";\n\ncontract ComposableToken { \n    address owner;\n    address merkleDistributor;\n    string  public name = \"Composable Token\";\n    string  public symbol = \"CMP\";\n    uint256 public totalSupply;\n    \n    event TokenMinted(\n        address indexed owner, \n        uint256 indexed amount\n    );\n\n    mapping(address => uint256) public  balanceOf;\n    mapping(address => mapping(address => uint256)) public  allowance;\n\n    constructor()  {\n        owner = msg.sender;\n    }\n    \n    function setMerkleDistributor (address merkleAddress) external OnlyOwner {\n        require(merkleAddress != address(0),'Invalid address');\n        merkleDistributor = merkleAddress;\n    }\n\n    function transfer(address _to, uint256 _value) public  returns (bool success) {\n        require(balanceOf[msg.sender] >= _value);\n        balanceOf[msg.sender] -= _value;\n        balanceOf[_to] += _value;\n        // emit Transfer(msg.sender, _to, _value);\n        return true;\n    }\n\n    function approve(address _spender, uint256 _value) public  returns (bool success) {\n        allowance[msg.sender][_spender] = _value;\n        // emit Approval(msg.sender, _spender, _value);\n        return true;\n    }\n\n    function transferFrom(address _from, address _to, uint256 _value) public  returns (bool success) {\n        require(_value <= balanceOf[_from]);\n        require(_value <= allowance[_from][msg.sender]);\n        balanceOf[_from] -= _value;\n        balanceOf[_to] += _value;\n        allowance[_from][msg.sender] -= _value;\n        // emit Transfer(_from, _to, _value);\n        return true;\n    }\n    \n    function mint(uint256 amount) external  OnlyOwner{\n        balanceOf[merkleDistributor] = amount;\n        totalSupply += amount;\n        emit TokenMinted(msg.sender,amount);\n    }\n    \n    modifier OnlyOwner(){\n        require(msg.sender == owner,'Only owner');\n        _;\n    }\n}\n",
  "sourcePath": "/Users/tiberiunicu/AdvancedBlockchain/contracts/ComposableToken.sol",
  "compiler": {
    "name": "solc",
    "version": "0.8.0+commit.c7dfd78e.Emscripten.clang"
  },
  "schemaVersion": "3.4.0",
  "updatedAt": "2021-08-05T09:54:49.312Z",
  "devdoc": {
    "kind": "dev",
    "methods": {},
    "version": 1
  },
  "userdoc": {
    "kind": "user",
    "methods": {},
    "version": 1
  }
}