{
  "contractName": "MerkleDistributor",
  "abi": [
    {
      "inputs": [
        {
          "internalType": "contract ComposableToken",
          "name": "_token",
          "type": "address"
        }
      ],
      "stateMutability": "nonpayable",
      "type": "constructor"
    },
    {
      "anonymous": false,
      "inputs": [
        {
          "indexed": true,
          "internalType": "address",
          "name": "user",
          "type": "address"
        },
        {
          "indexed": true,
          "internalType": "uint256",
          "name": "amount",
          "type": "uint256"
        }
      ],
      "name": "UnclaimedTokenAdded",
      "type": "event"
    },
    {
      "anonymous": false,
      "inputs": [
        {
          "indexed": true,
          "internalType": "address",
          "name": "user",
          "type": "address"
        },
        {
          "indexed": true,
          "internalType": "uint256",
          "name": "amount",
          "type": "uint256"
        }
      ],
      "name": "tokenClaimed",
      "type": "event"
    },
    {
      "inputs": [
        {
          "internalType": "address",
          "name": "",
          "type": "address"
        }
      ],
      "name": "claimedToken",
      "outputs": [
        {
          "internalType": "uint256",
          "name": "",
          "type": "uint256"
        }
      ],
      "stateMutability": "view",
      "type": "function"
    },
    {
      "inputs": [],
      "name": "owner",
      "outputs": [
        {
          "internalType": "address",
          "name": "",
          "type": "address"
        }
      ],
      "stateMutability": "view",
      "type": "function"
    },
    {
      "inputs": [],
      "name": "token",
      "outputs": [
        {
          "internalType": "contract ComposableToken",
          "name": "",
          "type": "address"
        }
      ],
      "stateMutability": "view",
      "type": "function"
    },
    {
      "inputs": [
        {
          "internalType": "address",
          "name": "",
          "type": "address"
        }
      ],
      "name": "unclaimedToken",
      "outputs": [
        {
          "internalType": "uint256",
          "name": "",
          "type": "uint256"
        }
      ],
      "stateMutability": "view",
      "type": "function"
    },
    {
      "inputs": [
        {
          "internalType": "address",
          "name": "user",
          "type": "address"
        },
        {
          "internalType": "uint256",
          "name": "amount",
          "type": "uint256"
        }
      ],
      "name": "addUnclaimedToken",
      "outputs": [],
      "stateMutability": "nonpayable",
      "type": "function"
    },
    {
      "inputs": [
        {
          "internalType": "uint256",
          "name": "amount",
          "type": "uint256"
        }
      ],
      "name": "claimToken",
      "outputs": [],
      "stateMutability": "nonpayable",
      "type": "function"
    },
    {
      "inputs": [
        {
          "internalType": "address[]",
          "name": "users",
          "type": "address[]"
        },
        {
          "internalType": "uint256[]",
          "name": "amounts",
          "type": "uint256[]"
        }
      ],
      "name": "addBulkUsersUnclaimedToken",
      "outputs": [],
      "stateMutability": "nonpayable",
      "type": "function"
    }
  ],
  "bytecode": "0x608060405234801561001057600080fd5b50604051610f99380380610f99833981810160405281019061003291906100ce565b33600160006101000a81548173ffffffffffffffffffffffffffffffffffffffff021916908373ffffffffffffffffffffffffffffffffffffffff160217905550806000806101000a81548173ffffffffffffffffffffffffffffffffffffffff021916908373ffffffffffffffffffffffffffffffffffffffff16021790555050610152565b6000815190506100c88161013b565b92915050565b6000602082840312156100e057600080fd5b60006100ee848285016100b9565b91505092915050565b60006101028261011b565b9050919050565b6000610114826100f7565b9050919050565b600073ffffffffffffffffffffffffffffffffffffffff82169050919050565b61014481610109565b811461014f57600080fd5b50565b610e38806101616000396000f3fe608060405234801561001057600080fd5b506004361061007d5760003560e01c80638da5cb5b1161005b5780638da5cb5b146100fe578063952205b81461011c578063a9e7c2e514610138578063fc0c546a146101545761007d565b80634a3e200314610082578063606e78ef146100b257806377968923146100e2575b600080fd5b61009c60048036038101906100979190610889565b610172565b6040516100a99190610c58565b60405180910390f35b6100cc60048036038101906100c79190610889565b61018a565b6040516100d99190610c58565b60405180910390f35b6100fc60048036038101906100f791906108ee565b6101a2565b005b6101066102f7565b6040516101139190610b62565b60405180910390f35b610136600480360381019061013191906108b2565b61031d565b005b610152600480360381019061014d9190610963565b610563565b005b61015c610792565b6040516101699190610b7d565b60405180910390f35b60026020528060005260406000206000915090505481565b60036020528060005260406000206000915090505481565b600084849050116101e8576040517f08c379a00000000000000000000000000000000000000000000000000000000081526004016101df90610bf8565b60405180910390fd5b818190508484905014610230576040517f08c379a000000000000000000000000000000000000000000000000000000000815260040161022790610c38565b60405180910390fd5b60005b848490508160ff1610156102f0576102dd85858360ff16818110610280577f4e487b7100000000000000000000000000000000000000000000000000000000600052603260045260246000fd5b90506020020160208101906102959190610889565b84848460ff168181106102d1577f4e487b7100000000000000000000000000000000000000000000000000000000600052603260045260246000fd5b9050602002013561031d565b80806102e890610d7b565b915050610233565b5050505050565b600160009054906101000a900473ffffffffffffffffffffffffffffffffffffffff1681565b600160009054906101000a900473ffffffffffffffffffffffffffffffffffffffff1673ffffffffffffffffffffffffffffffffffffffff163373ffffffffffffffffffffffffffffffffffffffff16146103ad576040517f08c379a00000000000000000000000000000000000000000000000000000000081526004016103a490610c18565b60405180910390fd5b60008054906101000a900473ffffffffffffffffffffffffffffffffffffffff1673ffffffffffffffffffffffffffffffffffffffff166318160ddd6040518163ffffffff1660e01b815260040160206040518083038186803b15801561041357600080fd5b505afa158015610427573d6000803e3d6000fd5b505050506040513d601f19601f8201168201806040525081019061044b919061098c565b81111561048d576040517f08c379a000000000000000000000000000000000000000000000000000000000815260040161048490610bd8565b60405180910390fd5b80600260008473ffffffffffffffffffffffffffffffffffffffff1673ffffffffffffffffffffffffffffffffffffffff168152602001908152602001600020546104d89190610c84565b600260008473ffffffffffffffffffffffffffffffffffffffff1673ffffffffffffffffffffffffffffffffffffffff16815260200190815260200160002081905550808273ffffffffffffffffffffffffffffffffffffffff167f6682410da2e9a790a1041eef0f46821ccf718aea7a5b068dcac87217670d671060405160405180910390a35050565b6000600260003373ffffffffffffffffffffffffffffffffffffffff1673ffffffffffffffffffffffffffffffffffffffff16815260200190815260200160002054116105e5576040517f08c379a00000000000000000000000000000000000000000000000000000000081526004016105dc90610bb8565b60405180910390fd5b80600260003373ffffffffffffffffffffffffffffffffffffffff1673ffffffffffffffffffffffffffffffffffffffff168152602001908152602001600020541015610667576040517f08c379a000000000000000000000000000000000000000000000000000000000815260040161065e90610b98565b60405180910390fd5b80600260003373ffffffffffffffffffffffffffffffffffffffff1673ffffffffffffffffffffffffffffffffffffffff168152602001908152602001600020546106b29190610cda565b600260003373ffffffffffffffffffffffffffffffffffffffff1673ffffffffffffffffffffffffffffffffffffffff1681526020019081526020016000208190555080600360003373ffffffffffffffffffffffffffffffffffffffff1673ffffffffffffffffffffffffffffffffffffffff16815260200190815260200160002060008282546107449190610c84565b92505081905550803373ffffffffffffffffffffffffffffffffffffffff167fea3bb667c143cc56206b0480550c1c922ab78540548a0504f750fb2fe61ac86560405160405180910390a350565b60008054906101000a900473ffffffffffffffffffffffffffffffffffffffff1681565b6000813590506107c581610dd4565b92915050565b60008083601f8401126107dd57600080fd5b8235905067ffffffffffffffff8111156107f657600080fd5b60208301915083602082028301111561080e57600080fd5b9250929050565b60008083601f84011261082757600080fd5b8235905067ffffffffffffffff81111561084057600080fd5b60208301915083602082028301111561085857600080fd5b9250929050565b60008135905061086e81610deb565b92915050565b60008151905061088381610deb565b92915050565b60006020828403121561089b57600080fd5b60006108a9848285016107b6565b91505092915050565b600080604083850312156108c557600080fd5b60006108d3858286016107b6565b92505060206108e48582860161085f565b9150509250929050565b6000806000806040858703121561090457600080fd5b600085013567ffffffffffffffff81111561091e57600080fd5b61092a878288016107cb565b9450945050602085013567ffffffffffffffff81111561094957600080fd5b61095587828801610815565b925092505092959194509250565b60006020828403121561097557600080fd5b60006109838482850161085f565b91505092915050565b60006020828403121561099e57600080fd5b60006109ac84828501610874565b91505092915050565b6109be81610d0e565b82525050565b6109cd81610d57565b82525050565b60006109e0601383610c73565b91507f496e737566696369656e7420666f756e647321000000000000000000000000006000830152602082019050919050565b6000610a20601883610c73565b91507f596f75722062616c616e636520697320746f6f206c6f772100000000000000006000830152602082019050919050565b6000610a60602083610c73565b91507f616d6f756e742067726561746572207468616e20746f74616c20737570706c796000830152602082019050919050565b6000610aa0600e83610c73565b91507f417272617920697320656d7074790000000000000000000000000000000000006000830152602082019050919050565b6000610ae0601983610c73565b91507f4f6e6c79206f776e65722063616e2061646420746f6b656e73000000000000006000830152602082019050919050565b6000610b20601e83610c73565b91507f417272617973206861766520646966666572656e7473206c656e6768747300006000830152602082019050919050565b610b5c81610d40565b82525050565b6000602082019050610b7760008301846109b5565b92915050565b6000602082019050610b9260008301846109c4565b92915050565b60006020820190508181036000830152610bb1816109d3565b9050919050565b60006020820190508181036000830152610bd181610a13565b9050919050565b60006020820190508181036000830152610bf181610a53565b9050919050565b60006020820190508181036000830152610c1181610a93565b9050919050565b60006020820190508181036000830152610c3181610ad3565b9050919050565b60006020820190508181036000830152610c5181610b13565b9050919050565b6000602082019050610c6d6000830184610b53565b92915050565b600082825260208201905092915050565b6000610c8f82610d40565b9150610c9a83610d40565b9250827fffffffffffffffffffffffffffffffffffffffffffffffffffffffffffffffff03821115610ccf57610cce610da5565b5b828201905092915050565b6000610ce582610d40565b9150610cf083610d40565b925082821015610d0357610d02610da5565b5b828203905092915050565b6000610d1982610d20565b9050919050565b600073ffffffffffffffffffffffffffffffffffffffff82169050919050565b6000819050919050565b600060ff82169050919050565b6000610d6282610d69565b9050919050565b6000610d7482610d20565b9050919050565b6000610d8682610d4a565b915060ff821415610d9a57610d99610da5565b5b600182019050919050565b7f4e487b7100000000000000000000000000000000000000000000000000000000600052601160045260246000fd5b610ddd81610d0e565b8114610de857600080fd5b50565b610df481610d40565b8114610dff57600080fd5b5056fea2646970667358221220c8f449d17ab7f179d0f875b37a744b04632b5f66e75b0b97ee0e50898f15038f64736f6c63430008000033",
  "immutableReferences": {},
  "source": "//SPDX-License-Identifier: MIT\npragma solidity >=0.4.22 <0.9.0;\n\n// import \"@openzeppelin/contracts/token/ERC20/IERC20.sol\";\nimport \"./ComposableToken.sol\";\n\ncontract MerkleDistributor {\n    ComposableToken public token;\n    address public owner;\n    mapping(address=>uint) public unclaimedToken;\n    mapping(address=>uint) public claimedToken;\n    \n    event UnclaimedTokenAdded (\n        address indexed user, \n        uint indexed amount\n    );\n    \n    event tokenClaimed (\n        address indexed user, \n        uint indexed amount\n    );\n    \n    constructor (ComposableToken _token){\n        owner = msg.sender;\n        token = _token;\n    }\n\n    function addUnclaimedToken(address user, uint amount) public {\n        require(msg.sender == owner, 'Only owner can add tokens');\n        require(amount <= token.totalSupply(), 'amount greater than total supply');\n        unclaimedToken[user] = unclaimedToken[user] + amount;\n        emit UnclaimedTokenAdded(user, amount);\n    \n    }\n    \n    function claimToken(uint amount) external {\n        require(unclaimedToken[msg.sender] > 0, 'Your balance is too low!');\n        require(unclaimedToken[msg.sender] >= amount, 'Insuficient founds!');\n        unclaimedToken[msg.sender] = unclaimedToken[msg.sender] - amount;\n        claimedToken[msg.sender] += amount;\n        emit tokenClaimed(msg.sender, amount);\n        // token.transfer(msg.sender,amount);\n    }\n    \n    function addBulkUsersUnclaimedToken(address[] calldata users, uint[] calldata amounts) external{\n        require(users.length > 0 , 'Array is empty');\n        require(users.length == amounts.length, 'Arrays have differents lenghts');\n        for (uint8 i=0;i< users.length; i++){\n            addUnclaimedToken(users[i], amounts[i]);\n        }\n    }\n\n    \n}\n\n    ",
  "sourcePath": "/Users/tiberiunicu/AdvancedBlockchain/contracts/MerkleDistributor.sol",
  "compiler": {
    "name": "solc",
    "version": "0.8.0+commit.c7dfd78e.Emscripten.clang"
  },
  "schemaVersion": "3.4.0",
  "updatedAt": "2021-08-05T09:54:49.323Z",
  "devdoc": {
    "kind": "dev",
    "methods": {},
    "version": 1
  },
  "userdoc": {
    "kind": "user",
    "methods": {},
    "version": 1
  }
}