{
  "contractName": "MerkleDistributor",
  "abi": [
    {
      "inputs": [
        {
          "internalType": "contract ComposableToken",
          "name": "_token",
          "type": "address"
        }
      ],
      "stateMutability": "nonpayable",
      "type": "constructor"
    },
    {
      "anonymous": false,
      "inputs": [
        {
          "indexed": true,
          "internalType": "address",
          "name": "user",
          "type": "address"
        },
        {
          "indexed": true,
          "internalType": "uint256",
          "name": "amount",
          "type": "uint256"
        }
      ],
      "name": "UnclaimedTokenAdded",
      "type": "event"
    },
    {
      "anonymous": false,
      "inputs": [
        {
          "indexed": true,
          "internalType": "address",
          "name": "user",
          "type": "address"
        },
        {
          "indexed": true,
          "internalType": "uint256",
          "name": "amount",
          "type": "uint256"
        }
      ],
      "name": "tokenClaimed",
      "type": "event"
    },
    {
      "inputs": [
        {
          "internalType": "address",
          "name": "",
          "type": "address"
        }
      ],
      "name": "claimedToken",
      "outputs": [
        {
          "internalType": "uint256",
          "name": "",
          "type": "uint256"
        }
      ],
      "stateMutability": "view",
      "type": "function"
    },
    {
      "inputs": [],
      "name": "owner",
      "outputs": [
        {
          "internalType": "address",
          "name": "",
          "type": "address"
        }
      ],
      "stateMutability": "view",
      "type": "function"
    },
    {
      "inputs": [],
      "name": "token",
      "outputs": [
        {
          "internalType": "contract ComposableToken",
          "name": "",
          "type": "address"
        }
      ],
      "stateMutability": "view",
      "type": "function"
    },
    {
      "inputs": [
        {
          "internalType": "address",
          "name": "",
          "type": "address"
        }
      ],
      "name": "unclaimedToken",
      "outputs": [
        {
          "internalType": "uint256",
          "name": "",
          "type": "uint256"
        }
      ],
      "stateMutability": "view",
      "type": "function"
    },
    {
      "inputs": [
        {
          "internalType": "address",
          "name": "user",
          "type": "address"
        },
        {
          "internalType": "uint256",
          "name": "amount",
          "type": "uint256"
        }
      ],
      "name": "addUnclaimedToken",
      "outputs": [],
      "stateMutability": "nonpayable",
      "type": "function"
    },
    {
      "inputs": [
        {
          "internalType": "uint256",
          "name": "amount",
          "type": "uint256"
        }
      ],
      "name": "claimToken",
      "outputs": [],
      "stateMutability": "nonpayable",
      "type": "function"
    },
    {
      "inputs": [
        {
          "internalType": "address[]",
          "name": "users",
          "type": "address[]"
        },
        {
          "internalType": "uint256[]",
          "name": "amounts",
          "type": "uint256[]"
        }
      ],
      "name": "addBulkUsersUnclaimedToken",
      "outputs": [],
      "stateMutability": "nonpayable",
      "type": "function"
    }
  ],
  "bytecode": "0x60806040523480156200001157600080fd5b50604051620010ac380380620010ac8339818101604052810190620000379190620000d6565b33600160006101000a81548173ffffffffffffffffffffffffffffffffffffffff021916908373ffffffffffffffffffffffffffffffffffffffff160217905550806000806101000a81548173ffffffffffffffffffffffffffffffffffffffff021916908373ffffffffffffffffffffffffffffffffffffffff1602179055505062000164565b600081519050620000d0816200014a565b92915050565b600060208284031215620000e957600080fd5b6000620000f984828501620000bf565b91505092915050565b60006200010f826200012a565b9050919050565b6000620001238262000102565b9050919050565b600073ffffffffffffffffffffffffffffffffffffffff82169050919050565b620001558162000116565b81146200016157600080fd5b50565b610f3880620001746000396000f3fe608060405234801561001057600080fd5b506004361061007d5760003560e01c80638da5cb5b1161005b5780638da5cb5b146100fe578063952205b81461011c578063a9e7c2e514610138578063fc0c546a146101545761007d565b80634a3e200314610082578063606e78ef146100b257806377968923146100e2575b600080fd5b61009c60048036038101906100979190610914565b610172565b6040516100a99190610d35565b60405180910390f35b6100cc60048036038101906100c79190610914565b61018a565b6040516100d99190610d35565b60405180910390f35b6100fc60048036038101906100f79190610979565b6101a2565b005b6101066102f7565b6040516101139190610c16565b60405180910390f35b6101366004803603810190610131919061093d565b61031d565b005b610152600480360381019061014d9190610a17565b610563565b005b61015c610808565b6040516101699190610c5a565b60405180910390f35b60026020528060005260406000206000915090505481565b60036020528060005260406000206000915090505481565b600084849050116101e8576040517f08c379a00000000000000000000000000000000000000000000000000000000081526004016101df90610cf5565b60405180910390fd5b818190508484905014610230576040517f08c379a000000000000000000000000000000000000000000000000000000000815260040161022790610d15565b60405180910390fd5b60005b848490508160ff1610156102f0576102dd85858360ff16818110610280577f4e487b7100000000000000000000000000000000000000000000000000000000600052603260045260246000fd5b90506020020160208101906102959190610914565b84848460ff168181106102d1577f4e487b7100000000000000000000000000000000000000000000000000000000600052603260045260246000fd5b9050602002013561031d565b80806102e890610e64565b915050610233565b5050505050565b600160009054906101000a900473ffffffffffffffffffffffffffffffffffffffff1681565b600160009054906101000a900473ffffffffffffffffffffffffffffffffffffffff1673ffffffffffffffffffffffffffffffffffffffff163373ffffffffffffffffffffffffffffffffffffffff16146103ad576040517f08c379a00000000000000000000000000000000000000000000000000000000081526004016103a490610c95565b60405180910390fd5b60008054906101000a900473ffffffffffffffffffffffffffffffffffffffff1673ffffffffffffffffffffffffffffffffffffffff166318160ddd6040518163ffffffff1660e01b815260040160206040518083038186803b15801561041357600080fd5b505afa158015610427573d6000803e3d6000fd5b505050506040513d601f19601f8201168201806040525081019061044b9190610a40565b81111561048d576040517f08c379a000000000000000000000000000000000000000000000000000000000815260040161048490610cd5565b60405180910390fd5b80600260008473ffffffffffffffffffffffffffffffffffffffff1673ffffffffffffffffffffffffffffffffffffffff168152602001908152602001600020546104d89190610d61565b600260008473ffffffffffffffffffffffffffffffffffffffff1673ffffffffffffffffffffffffffffffffffffffff16815260200190815260200160002081905550808273ffffffffffffffffffffffffffffffffffffffff167f6682410da2e9a790a1041eef0f46821ccf718aea7a5b068dcac87217670d671060405160405180910390a35050565b6000600260003373ffffffffffffffffffffffffffffffffffffffff1673ffffffffffffffffffffffffffffffffffffffff16815260200190815260200160002054116105e5576040517f08c379a00000000000000000000000000000000000000000000000000000000081526004016105dc90610cb5565b60405180910390fd5b80600260003373ffffffffffffffffffffffffffffffffffffffff1673ffffffffffffffffffffffffffffffffffffffff168152602001908152602001600020541015610667576040517f08c379a000000000000000000000000000000000000000000000000000000000815260040161065e90610c75565b60405180910390fd5b80600260003373ffffffffffffffffffffffffffffffffffffffff1673ffffffffffffffffffffffffffffffffffffffff16815260200190815260200160002060008282546106b69190610db7565b9250508190555080600360003373ffffffffffffffffffffffffffffffffffffffff1673ffffffffffffffffffffffffffffffffffffffff168152602001908152602001600020600082825461070c9190610d61565b9250508190555060008054906101000a900473ffffffffffffffffffffffffffffffffffffffff1673ffffffffffffffffffffffffffffffffffffffff1663a9059cbb33836040518363ffffffff1660e01b815260040161076e929190610c31565b602060405180830381600087803b15801561078857600080fd5b505af115801561079c573d6000803e3d6000fd5b505050506040513d601f19601f820116820180604052508101906107c091906109ee565b50803373ffffffffffffffffffffffffffffffffffffffff167fea3bb667c143cc56206b0480550c1c922ab78540548a0504f750fb2fe61ac86560405160405180910390a350565b60008054906101000a900473ffffffffffffffffffffffffffffffffffffffff1681565b60008135905061083b81610ebd565b92915050565b60008083601f84011261085357600080fd5b8235905067ffffffffffffffff81111561086c57600080fd5b60208301915083602082028301111561088457600080fd5b9250929050565b60008083601f84011261089d57600080fd5b8235905067ffffffffffffffff8111156108b657600080fd5b6020830191508360208202830111156108ce57600080fd5b9250929050565b6000815190506108e481610ed4565b92915050565b6000813590506108f981610eeb565b92915050565b60008151905061090e81610eeb565b92915050565b60006020828403121561092657600080fd5b60006109348482850161082c565b91505092915050565b6000806040838503121561095057600080fd5b600061095e8582860161082c565b925050602061096f858286016108ea565b9150509250929050565b6000806000806040858703121561098f57600080fd5b600085013567ffffffffffffffff8111156109a957600080fd5b6109b587828801610841565b9450945050602085013567ffffffffffffffff8111156109d457600080fd5b6109e08782880161088b565b925092505092959194509250565b600060208284031215610a0057600080fd5b6000610a0e848285016108d5565b91505092915050565b600060208284031215610a2957600080fd5b6000610a37848285016108ea565b91505092915050565b600060208284031215610a5257600080fd5b6000610a60848285016108ff565b91505092915050565b610a7281610deb565b82525050565b610a8181610e40565b82525050565b6000610a94601383610d50565b91507f496e737566696369656e7420666f756e647321000000000000000000000000006000830152602082019050919050565b6000610ad4600a83610d50565b91507f4f6e6c79206f776e6572000000000000000000000000000000000000000000006000830152602082019050919050565b6000610b14601883610d50565b91507f596f75722062616c616e636520697320746f6f206c6f772100000000000000006000830152602082019050919050565b6000610b54602083610d50565b91507f616d6f756e742067726561746572207468616e20746f74616c20737570706c796000830152602082019050919050565b6000610b94600e83610d50565b91507f417272617920697320656d7074790000000000000000000000000000000000006000830152602082019050919050565b6000610bd4601e83610d50565b91507f417272617973206861766520646966666572656e7473206c656e6768747300006000830152602082019050919050565b610c1081610e29565b82525050565b6000602082019050610c2b6000830184610a69565b92915050565b6000604082019050610c466000830185610a69565b610c536020830184610c07565b9392505050565b6000602082019050610c6f6000830184610a78565b92915050565b60006020820190508181036000830152610c8e81610a87565b9050919050565b60006020820190508181036000830152610cae81610ac7565b9050919050565b60006020820190508181036000830152610cce81610b07565b9050919050565b60006020820190508181036000830152610cee81610b47565b9050919050565b60006020820190508181036000830152610d0e81610b87565b9050919050565b60006020820190508181036000830152610d2e81610bc7565b9050919050565b6000602082019050610d4a6000830184610c07565b92915050565b600082825260208201905092915050565b6000610d6c82610e29565b9150610d7783610e29565b9250827fffffffffffffffffffffffffffffffffffffffffffffffffffffffffffffffff03821115610dac57610dab610e8e565b5b828201905092915050565b6000610dc282610e29565b9150610dcd83610e29565b925082821015610de057610ddf610e8e565b5b828203905092915050565b6000610df682610e09565b9050919050565b60008115159050919050565b600073ffffffffffffffffffffffffffffffffffffffff82169050919050565b6000819050919050565b600060ff82169050919050565b6000610e4b82610e52565b9050919050565b6000610e5d82610e09565b9050919050565b6000610e6f82610e33565b915060ff821415610e8357610e82610e8e565b5b600182019050919050565b7f4e487b7100000000000000000000000000000000000000000000000000000000600052601160045260246000fd5b610ec681610deb565b8114610ed157600080fd5b50565b610edd81610dfd565b8114610ee857600080fd5b50565b610ef481610e29565b8114610eff57600080fd5b5056fea26469706673582212206b78780f4030e065ebcd720964d06b2158c61eb99595b5c15b98afb0d879e53264736f6c63430008000033",
  "immutableReferences": {},
  "source": "//SPDX-License-Identifier: MIT\npragma solidity >=0.4.22 <0.9.0;\n\nimport \"@openzeppelin/contracts/token/ERC20/IERC20.sol\";\nimport \"./ComposableToken.sol\";\n\ncontract MerkleDistributor {\n    ComposableToken public token;\n    address public owner;\n    mapping(address=>uint) public unclaimedToken;\n    mapping(address=>uint) public claimedToken;\n    \n    event UnclaimedTokenAdded (\n        address indexed user, \n        uint indexed amount\n    );\n    \n    event tokenClaimed (\n        address indexed user, \n        uint indexed amount\n    );\n    \n    modifier OnlyOwner(){\n        require(msg.sender == owner,'Only owner');\n        _;\n    }\n\n    constructor (ComposableToken _token)  {\n        owner = msg.sender;\n        token = _token;\n    }\n\n    function addUnclaimedToken(address user, uint amount) public OnlyOwner{\n        require(amount <= IERC20(token).totalSupply(), 'amount greater than total supply');\n        unclaimedToken[user] = unclaimedToken[user] + amount;\n        emit UnclaimedTokenAdded(user, amount);\n    }\n    \n    function claimToken(uint amount) external {\n        require(unclaimedToken[msg.sender] > 0, 'Your balance is too low!');\n        require(unclaimedToken[msg.sender] >= amount, 'Insuficient founds!');\n        unclaimedToken[msg.sender] -= amount;\n        claimedToken[msg.sender] += amount;\n        IERC20(token).transfer(msg.sender,amount);\n        emit tokenClaimed(msg.sender, amount);\n    }\n    \n    function addBulkUsersUnclaimedToken(address[] calldata users, uint[] calldata amounts) external{\n        require(users.length > 0 , 'Array is empty');\n        require(users.length == amounts.length, 'Arrays have differents lenghts');\n        for (uint8 i=0;i< users.length; i++){\n            addUnclaimedToken(users[i], amounts[i]);\n        }\n    }\n}",
  "sourcePath": "/Users/tiberiunicu/AdvancedBlockchain/contracts/MerkleDistributor.sol",
  "compiler": {
    "name": "solc",
    "version": "0.8.0+commit.c7dfd78e.Emscripten.clang"
  },
  "schemaVersion": "3.4.0",
  "updatedAt": "2021-08-05T13:28:37.572Z",
  "devdoc": {
    "kind": "dev",
    "methods": {},
    "version": 1
  },
  "userdoc": {
    "kind": "user",
    "methods": {},
    "version": 1
  }
}